:020000040000FA
:060800005DEF24F0120080
:020806000000F0
:06080800E7EF15F01200FD
:02080E00C250D6
:08081000020B01E0010E1200D1
:0608180045EF21F0120083
:02081E000A00CE
:1008200057490000FF00000001000000A54900003A
:100830002303000008000000A0490000FA010000A6
:10084000050000009C4900002F0300000400000088
:100850009A4900003303000002000000964900009E
:100860002B030000040000007D490000000300008D
:10087000190000007B490000FD020000020000009A
:1008800062490000E00200001900000006080000B4
:08089000FD0000000200000061
:080898000201E06BE16B1200AC
:1008A0009AD9C7DA1BDBFAEC08F00101AE51010B53
:1008B000E66ED0EC08F0E5529FEC0BF040D8006EED
:1008C000060EE15E005003D814EF09F0120058EC58
:1008D0000BF0040E8FEC0CF04FEC1BF0DE6EDD6ABB
:1008E000BBEC0BF0013423E2EAEC0BF020E2020E49
:1008F000DB6A030EDB6A4AEC0BF0DECF02F0DDCFE1
:1009000003F001500318E8AE02D0033404D00250C3
:10091000005C035001580BE261EC1BF0700801E130
:10092000889E020EDB2A030EE6E3DB2AE4D7040EE0
:10093000E15C02E2E16AE552E16E5DEF0BF058EC3A
:100940000BF00C0E92EC0BF064EC0BF0025C006E02
:10095000FA0EDB500358C6EC0BF075EC0BF0CEEC46
:100960000BF000C0DEFFDD6E75EC0BF0025C006E7C
:10097000FA0EDB500358016E060E00C0DBFF070EB7
:1009800001C0DBFF64EC0BF0CEEC0BF0B4EC0BF031
:100990003FEC0CF0DECFE6FFDDCFE6FFAEEC0BF078
:1009A000F3CF02F0F4CF03F0F3CFE6FFF4CFE6FF8E
:1009B0004BEC0CF097EC0CF0AEEC0BF0F3CF04F03A
:1009C000F4CF05F0F3CFE6FFF4CFE6FFAEEC0BF08B
:1009D000F3CF00F0F4CF01F0F3CF32F0F4CF33F0E7
:1009E00053EC16F0080E31C0DBFF090E32C0DBFFFE
:1009F0000A0E33C0DBFF0B0E34C0DBFF86EC0BF0BE
:100A0000420EC0EC0BF04DEC18F0010A06E1006A52
:100A1000016AFE0E026E420E0ED086EC0BF0C20E84
:100A2000C0EC0BF056EC18F0010A26E1006A016AEE
:100A3000FE0E026EC20E036ED950080FE96EDACFB9
:100A4000EAFFEECF31F0EECF32F0EECF33F0EFCF62
:100A500034F000C036F001C037F002C038F003C0F7
:100A600039F0FDEC16F034C0EDFF33C0EDFF32C0BD
:100A7000EDFF31C0EFFF0CD0EFEC0BF0800EF36E0A
:100A80000A0EF3CFDBFF3F0EF36E0B0EF3CFDBFF4F
:100A900013EC0CF0D9CFE9FF27EC0BF0020FE96E55
:100AA00027EC0BF0060FE96E27EC0BF0040FE96E54
:100AB00028EC0CF07F0EDE26000EDD22D950020F4E
:100AC000A6EC0BF0D950040FA6EC0BF0D950060F92
:100AD000A6EC0BF0DAEC0AF0BBEC0BF0FF0ED880C2
:100AE0000056000E015600C0DEFF01C0DDFF4AECDB
:100AF0000BF0FF0ED8800056000E0156B4EC0BF040
:100B0000BBEC0BF0013411E200508008000E0154E0
:100B10000CE241EC0BF0000EDFCF32F0010EBAEC2C
:100B20000AF032C0DEFF33C0DDFF4AEC0BF00134C7
:100B300013E200508008000E01540EE241EC0BF06D
:100B4000020EDBCF32F0030EBAEC0AF0020E32C016
:100B5000DBFF030E33C0DBFFD5EC0BF0013413E2F7
:100B600000507F08000E01540EE241EC0BF0040E21
:100B7000DBCF32F0050EBAEC0AF0040E32C0DBFF18
:100B8000050E33C0DBFF51EC0BF001340FE20050D7
:100B90007F08000E01540AE241EC0BF0060EDBCF99
:100BA00032F0070EBAEC0AF0DCEC0BF0DAEC0AF0EB
:100BB000020EDBCF91F1DFCF92F1040EDBCF93F188
:100BC000060EDBCF90F10C0EE15C02E2E16AE55229
:100BD000E16E5DEF0BF00101B7510201E26FE36BD3
:100BE0000101B2510201E46FE56B0101B65102014E
:100BF000E66FE76B0101B4510201E86FE96B5C0E2F
:100C0000E25F000EE35B580EE45F000EE55B440E0E
:100C1000E65F000EE75B310EE85F000EE95BE3354F
:100C20000BE2E2510008000EE35506E2A10E006E51
:100C3000170E016E7A0E08D0800EE31512E01E0E1C
:100C4000006E980E016EEB0E026E3F0E036EE2C256
:100C500032F0E3C233F046EC0CF032C0E2F233C0C3
:100C6000E3F20201E5350BE2E4510008000EE55520
:100C700006E2AF0E006EF00E016E8A0E08D0800EF6
:100C8000E51512E07A0E006EA00E016EF20E026EF5
:100C90003F0E036EE4C232F0E5C233F046EC0CF0D6
:100CA00032C0E4F233C0E5F20201E7350BE2E6516F
:100CB0000008000EE75506E2DC0E006EEC0E016E39
:100CC000970E07D0800EE71511E00F0E006E016E33
:100CD000EF0E026E3F0E036EE6C232F0E7C233F053
:100CE00046EC0CF032C0E6F233C0E7F20201E9351F
:100CF0000BE2E8510008000EE95506E2B40E006E62
:100D0000980E016E0E0E08D0800EE91512E0A90EA5
:100D1000006EEF0E016E2C0E026E400E036EE8C2E6
:100D200032F0E9C233F046EC0CF032C0E8F233C0E6
:100D3000E9F20F0EE66EE66AB3EC0CF099EC0BF0FC
:100D4000F3CFE2F2F4CFE3F20F0EE66EE66AB8EC10
:100D50000CF099EC0BF0F3CFE4F2F4CFE5F2190EBE
:100D6000E66EE66ABDEC0CF099EC0BF0F3CFE6F220
:100D7000F4CFE7F20F0EE66EE66AE8C2E6FFE9C2DC
:100D8000E6FF99EC0BF0F3CFE8F2F4CFE9F20201C1
:100D9000E26DE31F000EE323E66DE71FE723E86D36
:100DA000E91FE9233AEC0BF0B3EC0CF0FDEC0BF08F
:100DB000F3CFE2F2F4CFE3F23AEC0BF0B8EC0CF044
:100DC000FDEC0BF0F3CFE4F2F4CFE5F23AEC0BF0EC
:100DD000BDEC0CF0FDEC0BF0F3CFE6F2F4CFE7F254
:100DE0003AEC0BF0E8C2E6FFE9C2E6FFFDEC0BF0DF
:100DF000F3CFE8F2F4CFE9F20101B751E66EE66A0B
:100E0000B251E66EE66AB651E66EE66A9FEC0BF00A
:100E1000360E006E440E016E026A00C0E6FFE66EFA
:100E200002C0E6FF3AEC22F0036E0F0EE15E0350C3
:100E3000120058EC0BF0E652DF6A0101AF51100BC3
:100E400001E0010E016EAF51200B01E0010E006EBA
:100E5000AF51400B01E0010E00240124DF6E010EB2
:100E6000E66EE66A000EE66EE66ADFCFE6FFE66A49
:100E7000FDEC0BF0F350DF6E0101AF51400B05E0CC
:100E80000201EA5102E1010E11D00101AF51200B24
:100E900005E00201EA5102E1020E08D00101AF5162
:100EA000100B05E00201EA5102E1030EE06F0201BE
:100EB000E05104E0DF5002E1010EEB6FDF5007E08C
:100EC000EB5105E0E06BEB6B010EEA6F05D0DF50F4
:100ED00003E1EB5101E1EA6BE552EFD3E9DB0A0EE6
:100EE00092EC0BF0EFEC0BF08CEC22F030C0DEFF5C
:100EF00031C0DDFF0201E16BE0515EE1F56BF66BA5
:100F00000101AEBB0BD0080EE8C2DBFF090EE9C23F
:100F1000DBFF8AEC0CF00201F76B0BD0EFEC0BF06F
:100F20000201F75106E0060EE8C2DBFF070EE9C238
:100F3000DBFFE851E91102E1010EF76FE851E91119
:100F400004E00101AE51200B5DE10201F25105E028
:100F5000DECFF3F2DDCFF4F2F26BF351DE5C006E24
:100F6000F451DD58C6EC0BF0D5EC0BF0D8900150E5
:100F700004E6010E005C000E01580FE2040EDBCF08
:100F800002F0050EDBCF03F0033401E2C3D00250C0
:100F9000FF08FF0E035401E2BDD0040E326E336A27
:100FA000DBCF37F0050EF4EC0BF0060E30C0DBFFA4
:100FB000070E31C0DBFFAED0E00528E1000EDFCF29
:100FC00032F0010EC0DB0CEC0CF01EEC18F0F4DB80
:100FD00068DBD890015004E6320E005C000E015828
:100FE00002E2320E09D05DDB01340CE20050500801
:100FF000000E015407E2500EF36E060EF3CFDBFF36
:10100000070EDB6A0201010EF26F84D0E051006E20
:10101000016A3A0E001807E1020E011804E13A0EC7
:10102000EC6F020EED6F020EE05D03E17A0EEC6FE5
:10103000ED6BEC51DE5C006EED51DD58016E94DB22
:10104000010EF26F27DB01340AE30050FD08FF0EAA
:10105000015405E30F0EF05F000EF15B0FD01ADBB9
:10106000D890015004E6030E005C000E015806E320
:10107000020EDBCFF0F2030EDBCFF1F27F0EE66E55
:10108000E66A3FEC0CF0F0C2E6FFF1C2E6FFB5DB2A
:10109000F3CFF0F2F4CFF1F2F2DB5DDAE552E55294
:1010A000F3CF00F0F4CF01F0F43404E20050030871
:1010B000000E015409E30201010EE16FE06BF06BD9
:1010C000F16BF56BF66B0CD056DB0201EE5100189C
:1010D00007E1EF51011804E10F0EF527000EF6238A
:1010E000320EE66EE66ACE0EE66EE668F5C2E6FF02
:1010F000F6C2E6FF82DBF3CFF5F2F4CFF6F202019F
:10110000F350F05FF450F15B060EF0C2DBFF070E08
:10111000F1C2DBFF30DBD890015004E63F0E005CEB
:10112000020E01580BE3060EDBCF02F0070EDBCFF9
:1011300003F00001800E031401E0ECDB81B60AD05D
:10114000B3EC22F0AEDA013405E244DB03E2E2DB89
:101150000201E06BDECFEEF2DDCFEFF28BDACBEC0B
:101160000CF088DA080EDBCFE6FF090EDBCFE6FFD6
:1011700044DB080EF3CFDBFF090EF4CFDBFF91DA7F
:101180007F0E00240101966F946FDFDB7F0E002439
:10119000956F0A0EE15C02E2E16AE552E16E8DD2E2
:1011A00087DAFE0EDB5002E0000E01D0010EE8B03F
:1011B0008B80E8A08B90FE0EDB5002E0000E01D089
:1011C000010EE8B09188E8A09198FE0EDB5002E095
:1011D000000E01D0010EE8B0918AE8A0919AFE0EAF
:1011E000DB5002E0000E01D0010EE8B0918CE8A0C7
:1011F000919C63D20201E05112E0030A0DE0010A62
:1012000007E0030A0CE101018C9F8C9B8C89120082
:1012100001018C9F8C8B06D001018C8F02D00101C3
:101220008C9F8C9B8C991200F8C28FF10201F851AF
:1012300025E147DA016AE225006EE3510CDAF3CFCB
:101240008EF13FDA0201016AE425006EE55103DA0E
:10125000F3CFA4F136DA0201016AE625006EE75108
:10126000FAD9F3CFA5F12DDA0201016AE825006E63
:10127000E951F1D9F3CFA6F101015BD0F8054DE1B9
:101280008150100B100A01E0010EE824066E0101E6
:101290008C51100B01E0010E040DF3CF05F08C51C1
:1012A000200B01E0010E080DF3CF04F08C51800BF0
:1012B00001E0010E100DF3CF03F00101AE51200B40
:1012C000200A01E0010E200DF3CF02F0AF51400BD8
:1012D00001E0010E400DF3CF01F0AF51200B01E012
:1012E000010E800DF3CF00F0AF51100BF350F3104F
:1012F00001100210031004100510061001018E6F7A
:101300008CEC22F031C000F0016A31500101A66F6F
:101310008CEC22F030C0A7F10DD0020EF85D0AE18E
:10132000E4EC1DF0F3CF8EF129C3A4F10101A56B0C
:10133000A66BA76B020E0201F85D02E2F82B120009
:10134000F86B1200B5D9FD0EDBCF32F0FE0EFBD9E3
:1013500090DA31C008F032C009F033C00AF034C06E
:101360000BF05ADA46D94DEC18F0010A2CE0B5DA48
:10137000A2DAFB0EDBCF18F0FC0EDBCF19F0186CF5
:10138000191E000E192218C032F019C033F053ECA8
:1013900016F031C014F032C015F033C016F034C06E
:1013A00017F03ADA91DA2FDA0CC031F00DC032F0D2
:1013B0000EC033F00FC034F056EC18F0010A03E011
:1013C000F36AF46A62D052D9013406E203DA04E225
:1013D00013D966EC16F003D00FD967EC16F031C0C4
:1013E0000AF032C00BF033C00CF034C00DF00BDA51
:1013F00006C031F007C032F008C033F009C034F045
:1014000050EC17F031C002F032C003F033C004F0EA
:1014100034C005F01E6A1F6AFE0E206E420E216E59
:1014200028DA31C026F032C027F033C028F034C0AB
:1014300029F0F2D931C022F032C023F033C024F0B9
:1014400034C025F0E0D91EC031F01FC032F020C0FA
:1014500033F021C034F066EC16F031C01AF032C01F
:101460001BF033C01CF034C01DF0CDD902C031F0E8
:1014700003C032F004C033F005C034F0FDEC16F0C8
:101480008EDA32C0F3FF33C0F4FF17D111D9EED892
:10149000F90EDBCF02F0FA0EDBCF03F00350011898
:1014A000E8AE02D0013404D00050025C0150035871
:1014B00005E2F90EDBCF00F0FA0E10D0D7D883D9B1
:1014C00001500318E8AE02D0033404D00250005C8F
:1014D0000350015802E28CD901D054DADBCF01F07D
:1014E00014D2E6D8C3D80001800E01140DE0326892
:1014F0003368FD0EDBCF37F0FE0E76D9FD0E30C01F
:10150000DBFFFE0E31C0DBFF73D9DBCF01F0000142
:10151000800E01140DE032683368FB0EDBCF37F02C
:10152000FC0E62D9FB0E30C0DBFFFC0E31C0DBFFCE
:101530009DD849D903500118E8AE02D0013404D037
:101540000050025C0150035802E21CDA01D050D96D
:10155000DBCF01F0DAD1ACD8FE0EDBCF01F0800E8C
:10156000011406E083D8006C011E000E012201D098
:101570007DD8CBD10CDAA8D9EFD966EC16F09BD97F
:1015800042D908C031F009C032F00AC033F00BC0B4
:1015900034F050EC17F0A7D9366A376A400E386E2F
:1015A000410E396E67EC16F0A7D9D6D967EC16F064
:1015B0001EEF18F046D9DECFE6FFDDCFE6FF1DD9DE
:1015C000F3CFDEFFF4CFDDFF3CD959D916D9020E97
:1015D000F3CFDBFF030EF4CFDBFF33D9A8D90DD94E
:1015E000040EF3CFDBFF050EF4CFDBFF2AD9CBEFE0
:1015F0000CF079D908D956D1066A076AFE0E086E32
:10160000420E096E6AD931C00EF032C00FF033C0FD
:1016100010F034C011F02DD931C016F032C017F0DF
:1016200033C018F034C019F0F7D831C012F032C00E
:1016300013F033C014F034C015F0E5D80EC031F00B
:101640000FC032F010C033F011C034F0120000D9D6
:10165000EAD8D9501200012200C0E6FF01C0E6FF1F
:1016600015DF026E060EE15E025012008BD9DBCF51
:1016700001F012007F0EE66EE66A810EE66EE66805
:1016800012009F0E086ECF0E096E670E0A6E3F0E97
:101690000B6E1200020EDBCF00F0030EDBCF01F069
:1016A0001200060EDBCF00F0070EDBCF01F01200B8
:1016B000D9CFE6FFE1CFD9FF1200E552E7CFD9FF3E
:1016C0001200BFD87F0E1200FB0EDBCF04F0FC0E21
:1016D000DBCF05F0FD0EDB50045C026EFE0EDB502E
:1016E0000558036EF90EDB501200FD0EDBCF04F03F
:1016F000FE0EDBCF05F0FB0EDB500424026EFC0E69
:10170000DB500520036EF90EDB5012001ED90A0EC5
:10171000DBCF02F00B0EDBCF03F0366A376AFE0E2A
:10172000386E1200FCD8040EDB6A050EDB6A8AEF05
:101730000CF008DEE552E552E552E55212001DD9E3
:1017400017D9B3EF0CF023D97CEF0CF0E96EDACFA8
:10175000EAFF7F0EEE26000EED221200C2DEE552F9
:10176000E552E552E5521200020E00C0DBFF030E07
:1017700001C0DBFF1200DECF00F0DDCF01F0120070
:10178000396E90D050EC17F01EEF18F0016E040E79
:1017900000C0DBFF050E01C0DBFF12000224006E5B
:1017A000FA0EDB500320016E1200040EDBCF00F0B6
:1017B000050EDBCF01F01200060E32C0DBFF070E74
:1017C00033C0DBFF1200FB0EDBCF02F0FC0EDBCFE1
:1017D00003F0120000500008000E01541200080E21
:1017E000DB6A090EDB6A1200DBCF38F0F1EF17F08D
:1017F000FB0EDBCF00F0FC0E120048DE006E060E82
:10180000E15E0050120031C036F032C037F033C014
:1018100038F034C039F01200366A376A386A400E40
:10182000396EFDEF16F0080EDBCF31F0090EDBCF7D
:1018300032F00A0EDBCF33F00B0EDBCF34F0CFEFFC
:101840000CF0FF0EE66EE66A000EE66EE66A120027
:10185000DACFEAFF32C037F033C038F0EECF32F0E3
:10186000EDCF33F047EC24F032C0EEFF33C0EDFF94
:101870001200FB0EDBCF32F0FC0EC7EF0CF0020EB5
:10188000DBCFE6FF030EDBCFE6FF120053EC16F0D2
:10189000B0DEC2EF0BF0060EDBCFE6FF070EDBCFAC
:1018A000E6FF120000C031F001C032F002C033F098
:1018B00003C034F0120031C00CF032C00DF033C060
:1018C0000EF034C00FF0120031C010F032C011F031
:1018D00033C012F034C013F01200FD0EDBCF32F033
:1018E000FE0EC7EF0CF031C004F032C005F033C07B
:1018F00006F034C007F0120031C000F032C001F031
:1019000033C002F034C003F0120000C0F3FF01C086
:10191000F4FFD3D6060EDB6A070EDB6A1200E1265F
:10192000DE6ADD6A020EDB6A030EDB6A1200040E59
:10193000DBCFE6FF050EDBCFE6FF1200060EF3CF8E
:10194000DBFF070EF4CFDBFF1200080EDBCF00F049
:10195000090EDBCF01F01200366A376AFE0E386ED0
:10196000420E396E1200E2C2E6FFE3C2E6FF120049
:10197000E4C2E6FFE5C2E6FF1200E6C2E6FFE7C208
:10198000E6FF1200FD0EDBCF00F0FE0E1200DBCFF3
:1019900033F053EF16F07FDF30DF9EEF0CF01EECDC
:0C19A00018F032C000F033C001F012005B
:0419AC0012EC12F037
:1019B000FB0EDBCFF3FFDB06F35000090AE060EC1F
:1019C00012F0FA0ECBEC12F0F3E1011CF1E1010E82
:1019D00001D0000E41EF12F012EC12F03B0EE124A8
:1019E00002E3E168E652E16E010EDB6A020EDB6A99
:1019F000F90EDBCFF6FFFA0EDBCFF7FFFB0EDBCFE6
:101A0000F8FF0800F550DF6EDF5002E165EF11F0DE
:101A1000250EDF5C02E058EF11F0030EDB6A040EC6
:101A2000DB6A050EDB6A060EDB6A070EDB6A7AEC00
:101A300011F02D0EDF5C0CE02B0EDF5C09E0200EB8
:101A4000DF5C06E0230EDF5C03E0300EDF5C1AE1B2
:101A5000DF50300A14E0130A0FE0030A0AE00B0A11
:101A600005E0060AE4E1030EDB80E1D7030EDB822A
:101A7000DED7030EDB84DBD7030EDB86D8D7030E5D
:101A8000DB88D5D72A0EDF5C1BE176EC11F0C4ECC5
:101A900011F010E0030EDB8032683368130EDBCFE9
:101AA00037F0140EDBCF38F0F1EC17F0040E30C035
:101AB000DBFF03D0130EADEC11F07AEC11F00BD07C
:101AC000090EDB6A1BEC12F003E08FEC12F0FAD780
:101AD000090EADEC11F0030EDBB0DB982E0EDF5CCF
:101AE0001BE17AEC11F02A0EDF5C0BE176EC11F0D1
:101AF000C4EC11F003E1130EFFEC11F07AEC11F0DD
:101B00000BD0090EDB6A1BEC12F003E08FEC12F035
:101B1000FAD7090EFFEC11F0680EDF5C07E17AECF2
:101B200011F0680EDF5C1DE1030E18D0740EDF5C4F
:101B300017E07A0EDF5C14E0480EDF5C06E0540E1E
:101B4000DF5C03E05A0EDF5C02E1020E07D06C0E90
:101B5000DF5C03E06A0EDF5C04E1010E52EC12F080
:101B6000C9DBDF506E0A01E17FD31E0A01E192D189
:101B7000200A01E18FD13F0A01E149D11A0A01E1AE
:101B800046D10D0A01E143D1200A01E140D13A0AD0
:101B900001E13DD1200A01E13AD1260A01E135D126
:101BA0000D0A01E132D11A0A01E1D9D0200A4AE036
:101BB000300A1FE0460A0EE0250A01E083D3D9501F
:101BC000F90FE96EFF0EDA20EA6E010EEE5E000EEE
:101BD000EE5AEE5A60EC12F0250EE66E95DB03E14C
:101BE000011C01E169D35CEC12F001E26BD3DB2A4A
:101BF00069D3080EDB6A040EDB50010806E2040E0E
:101C0000DB0424EC12F0DB508BDB080EDB5009E028
:101C1000030EDB50010B05E172DB01E04DD3080E32
:101C2000DB6A64DBEFCFDFFFD4EC12F003E1011CD1
:101C300001E142D35CEC12F001E3DB2A60DB01E15D
:101C400041D33AD3070EDB5002080FE1A0EC12F0AB
:101C5000030E67EC12F00E0EEECFDBFF0F0EEECF91
:101C6000DBFF100EEECFDBFF20D0F70EDBCF03F053
:101C7000F80EDBCF04F0020E035E000E045AF70EDE
:101C800003C0DBFFF80E04C0DBFF03C0E9FF04C0A4
:101C9000EAFF57EC12F0026A0E0E00C0DBFF0F0ED7
:101CA00001C0DBFF100E02C0DBFF0E0EDBCFE6FF34
:101CB0000F0EDBCFE6FF100EDBCFE6FFC2EC23F00A
:101CC000E552E552E552130E31C0DBFF140E32C06F
:101CD000DBFF060EDB5005E0130E9BEC12F001E279
:101CE0006ADBBFEC12F002E2130E37DB82EC12F07B
:101CF00006E0040E9BEC12F002E2050E2EDB030E52
:101D0000DBB005D0FCDA01E0D7D2080EDB6A090EA1
:101D1000DB6A0E0EDBCFF6FF0F0EDBCFF7FF100EE8
:101D2000DBCFF8FF0800F550DF6EDF5014E0C5ECA4
:101D300012F011E2D4EC12F003E1011C01E1BCD27B
:101D4000BBDB01E3DB2A090EDB2AD9500E0FE96E5B
:101D5000000ECBDBE7D7D3DA01E1B4D2ADD2C6DADD
:101D6000110EEECFDBFF120EEDCFDBFF110EDBCF3E
:101D7000E6FF120EDBCFE6FFB4EC23F0E552E552AE
:101D8000130EF3CFDBFF140EF4CFDBFF060EDB5098
:101D900004E0130ED0DB01E20EDBBFEC12F002E236
:101DA000130EDBDAAFDB05E0040EC5DB02E2050E45
:101DB000D4DA030EDBB005D0A2DA01E07DD2080E42
:101DC000DB6A090EDB6A110EDBCFE9FF120EDBCFF7
:101DD000EAFFEFCFDFFFDF5014E0D7DB12E2E4DBF6
:101DE00003E1011C01E168D267DB01E3DB2A090E94
:101DF000DB2A110EDB2ADBCFE9FF120EE8E3DB2A38
:101E0000E6D77DDA01E15ED257D2030EDB8E070EF4
:101E1000DB0410E195DB040E5ADB0A0EEECFDBFF8C
:101E20000B0EEECFDBFF0C0EEECFDBFF0D0EEECF79
:101E3000DBFF6CD0070EDB5003082CE1030EDBAE9A
:101E40000DD0B2DA020E76DAEFCF00F0016A026A44
:101E5000036A00AE39D00168026835D0F70EDBCFD7
:101E600001F0F80EDBCF02F0020E015E000E025A06
:101E7000F70E01C0DBFFF80E02C0DBFF01C0E9FF77
:101E800002C0EAFFEFCF00F00A0E00C0DBFF0B0E2E
:101E9000DB6A38D0070EDB50020809E1030EDBAE27
:101EA00004D059DB02AE10D00ED055DB0DD0030E9E
:101EB000DBAE12D079DA020E3DDAF9DA026A036A91
:101EC00001AE02D002680368E2DA0C0E02C0DBFF4A
:101ED0000D0E03C0DBFF1AD0F70EDBCF02F0F80EB9
:101EE000DBCF03F0020E025E000E035AF70E02C0B3
:101EF000DBFFF80E03C0DBFF02C0E9FF03C0EAFF0F
:101F0000D6DAC5DA0C0EDB6A0D0EDB6A060EDB5084
:101F100005E1010EF36E050EF3CFDBFF150EDB6A54
:101F2000160EDB6AD950370F006E000EDA20016EF4
:101F3000390E00C0DBFF3A0E01C0DBFF380EDB6A52
:101F4000080EDB6A0A0EAEDADF50780A12E0200AC9
:101F500010E0280A0CE0200A0AE03F0A06E00D0A19
:101F600002E0200A08E1020E05D0080E03D0080E98
:101F7000DF26100E97DA030EDBBE02D0DB92DB9475
:101F8000DB50800B24E08ADAD890030EEB50000A75
:101F900008E6000EEE5C000EEE58000EEE58000E45
:101FA000EE5815E213DA356836683768386848EC59
:101FB00023F00A0E2CC0DBFF0B0E2DC0DBFF0C0E36
:101FC0002EC0DBFF0D0E2FC0DBFF2D0E08D0030E41
:101FD000DBA202D02B0E03D0DBA408D0200EF36EC0
:101FE000170EF3CFDBFF150EDB2A02D0170EDB6ACC
:101FF000050EDB5003E1B7D901E189D0460E006E32
:10200000490E016E000E026E070EDBCF03F0046A6C
:10201000056A066A03C035F004C036F005C037F023
:1020200006C038F0D3D9E7EC23F000502C24F36E2F
:1020300001502D20F46E02502E20F86EF4CFF7FFE1
:10204000F3CFF6FF0800090EF5CFDBFF580EDF5C7B
:102050000FE1610EF36E090E7BD90AE3200E006ECC
:10206000090EDBCFE7FF0050E75E090EE7CFDBFF8D
:10207000070EDBCF00F0016A026A036A0FDA00C0C4
:1020800035F001C036F002C037F003C038F0EECFB3
:1020900030F0EECF31F0EECF32F0EFCF33F0E7ECAF
:1020A00023F033C0EDFF32C0EDFF31C0EDFF30C093
:1020B000EFFF390EDBCFE9FFDB063A0EDBCFEAFF9D
:1020C00001E2DB06090EDBCFEFFF150EDB2A4BD951
:1020D00095E1030EDBA61DD06F0EDF5C06E1C1D9D2
:1020E00018E3150EDB285BDA14D0780EDF5C09E00C
:1020F000580EDF5C06E0620EDF5C03E0420EDF5C40
:1021000008E1020EF36E160EF3CFDBFF02D0150EC0
:10211000DB6A030EDB50100B0EE0040EDBCF00F089
:10212000050EDB50D880005406E2060EDB5003E1BA
:10213000040EDB5034DA95D90AE2050EDBCFE7FF57
:10214000150EDB50E75E050EE7CFDBFF02D0050E74
:10215000DB6A040EDBCF00F0160E45D9D8800054A0
:1021600014E2160EDBCFE6FF150EDBCFE6FF040E02
:10217000DBCFE6FF050EDB50E552E75CE552D88089
:10218000E754E552D880E7545FD9030EDB50010BCA
:102190000BE1080EDB5008E0B2D801E08DD0080E4C
:1021A000DB50BED8080EDB6A170EDB5007E088D97B
:1021B000170EF1D903E1011C01E17ED0160EDB50B0
:1021C00016E07ED9300EE66E9FD802E1011C74E065
:1021D00077D9DFCFE6FFCBEC22F0E552E552E552AE
:1021E000F4CF01F00001F31C02E1011C65E0050ED3
:1021F000DBCF00F0160EDB50D880005409E2050E4C
:10220000DBCFE7FF160EDB50E75E050EE7CFDBFF07
:10221000300EE66E050ECBD94FE1390EDB2ADBCF4F
:10222000E9FF3A0E01E3DB2ADBCFEAFF090EEFCF2D
:10223000DBFFDB500EE044D9090EADD902E1011CF1
:102240003BE0390EDB2ADBCFE9FF3A0EEDE3DB2A78
:10225000EBD755D831E1160EDBCFE6FF080EC3D819
:10226000E552E7245DD82ED0070EDB50030A1CE0B0
:10227000010A14E0030A07E07BD9DBCFEEFF020E70
:10228000DBCFEDFF1FD0F5D8056A03AE02D004689E
:1022900005682CD8BCD805C0EEFF14D0EAD803BE20
:1022A000046824D8B4D80ED063D9DBCFEFFF0AD0AE
:1022B0007BD905E1011C03E1F368F46810D0FCD878
:1022C00001E3DB2A79D901EF0DF0010EDBCF00F03D
:1022D000020EDBCF01F000C0F3FF01C0F4FF3B0EA4
:1022E000E15C02E2E16AE552E16ECBD029D9020E4F
:1022F00067EF12F061D90800F550DF6E1200200E72
:10230000E66E080ED7EF12F0CBEC22F0E552E55264
:10231000E552F3CF00F0F4CF01F00001F31C1200FE
:10232000006E016AD950010F4DD90050EE260150C0
:10233000ED221200045E000E055AF70E04C0DBFF0A
:10234000F80E05C0DBFF04C0E9FF05C0EAFF12007C
:10235000DBCFF4FFF350F45C1200DB50E76E040EA9
:10236000E7CFDBFF12000A0EDBCF00F00B0EDBCF56
:1023700001F00C0EDBCF02F00D0EDBCF03F00050AE
:102380000110021003101200130EEECFDBFF140E2B
:10239000EDCFDBFF130EDBCF00F0140EDBCF01F02F
:1023A0000001800E01141200F70EDBCF04F0F80ECE
:1023B000DBCF05F01200050EDB50E66ED950130F8F
:1023C00001D9E552E750EE6EED6A12000A0EDBCF3E
:1023D00030F00B0EDBCF31F00C0EDBCF32F00D0EF8
:1023E000DBCF33F01200DBCFE6FF150EDBCFE6FFCD
:1023F000050EDB50E552E724E552E7241200DB50DE
:10240000CED8010EF36E060EF3CFDBFF1200EE50B6
:10241000EFCFEAFFE96E02C0EEFF03C0EEFF04C09B
:10242000EEFF1200D9CFE6FFDACFE6FFE1CFD9FF0A
:10243000E2CFDAFF1200DFCFE6FFE66A6FEC24F0AE
:10244000E552E552F3501200E76E080EE7CFDBFFCE
:102450001200EECF00F0EECF01F0EFCF02F0036AF2
:102460001200050EDBCF00F0150EDB50D8800054B3
:102470001200010EDBCF02F0020EDBCF03F0046A84
:102480001200E552E5CFDAFFE7CFD9FF12000A0EBE
:1024900000C0DBFF0B0E01C0DBFF1200D9500A0F9A
:1024A000E2EF12F0F36E070EF3CFDBFF1200EECF78
:1024B00000F0EFCF01F01200010EDB2A020E120035
:1024C000FC0EDBCFE6FFFD0EDBCFE6FF1200005E69
:1024D000000E015AF70E00C0DBFFF80E01C0DBFF53
:1024E00000C0E9FF01C0EAFF1200DA20EA6EEF2A1D
:1024F000EECFF6FF000EEF22EECFF7FFEF22EECF8A
:10250000F8FF1200040EDBCFE6FF130EDB50E5529E
:10251000E75C9ADFDB5004DF060EDB501200090E89
:10252000DB500A0DF350DF24D00FE76E090EE7CF22
:10253000DBFF7AEF11F0DB50F36E050EA8EF11F020
:10254000F70EDBCF00F0F80EDBCF01F01200DFCF8B
:10255000E6FF84EF11F028DF030EECDE29EF12F026
:10256000D6EC0CF0E552E552E552E55200091200B6
:10257000BDDEEE50EFCFEAFFE96E010E1200130E42
:10258000DB50F36E040EA8EF11F0040EDB50F36E77
:10259000090EA8EF11F0DBCFE6FF84EF11F0E76E34
:1025A000050EE7CFDBFF12008BDFA7EF12F0DBCFCA
:1025B000E6FF86DFB0EF12F0D950F90FE96EFF0E9B
:0E25C00075EF12F0E96E000EDA20EA6E1200DE
:0225CE00D9CF63
:1025D000E6FFE1CFD9FFE65237D80101CC97CC997D
:1025E000900E846F010E856FDF6A100EDF5C0AE2C9
:1025F000DF50EA6A8425E96E8551EA227F0EEF6E8C
:10260000DF2AF3D7A96B010EAA6FC20EAB6FCC8580
:10261000AE6BAF6B8C6B8E6B8F6B8C0EE66E010EA0
:10262000E66E86D8E552E5520101CC938C0EE66E3B
:10263000010EE66E7DD8E552E5520101CC93E552DC
:10264000E552E7CFD9FF1200806A816A826A836A05
:10265000846A856A866A876A886A896A8A6A8B6AEE
:102660008C6A8D6A8E6A8F6A906A916A2F0E926E5A
:1026700093689C0E946E956A966A9768040E986E9D
:1026800099680E0E9A6EB0989C8EF26AF16AF06AA2
:102690009E6AA16AA46A080E9D6EA06AA36A9F6ED4
:1026A000A26AA56A050EC66EC68AD08EF288F28C22
:1026B000F28E120082828088949292981200D9CF72
:1026C000E6FFE1CFD9FFE6520101CCA12CD0CCA985
:1026D00005D0400E806F010E816F04D0600E806FB8
:1026E000010E816FFD0EDBCF82F1FE0EDBCF83F199
:1026F000DF6A200EDF5C14E2DF50EA6A8025E96EB3
:102700008151EA22EF50E66E82C1E9FF83C1EAFF00
:10271000822B000E8323E552E750EF6EDF2AE9D7C4
:102720009D96CC919D86E552E552E7CFD9FF1200E8
:10273000D9CFE6FFE1CFD9FFE6520101CCB350D0AB
:10274000FD0EDBCFE9FFFE0EDBCFEAFF1E0EE92612
:10275000000EEA22EF50020809E1FD0EDBCFE6FF92
:10276000FE0EDBCFE6FF46D8E552E552FD0EDBCF8D
:10277000E9FFFE0EDBCFEAFF150EE926000EEA2286
:10278000EF9E0101CCA705D0200E806F010E816F56
:1027900004D0000E806F010E816FFD0EDBCF84F13F
:1027A000FE0EDBCF85F1DF6A200EDF5C14E284C110
:1027B000E9FF85C1EAFF842B000E8523EF50E66E0A
:1027C000DF50EA6A8025E96E8151EA22E552E7503E
:1027D000EF6EDF2AE9D79D96CC77CC839D86A92B17
:1027E000E552E552E7CFD9FF12009D960101CC9149
:1027F0009D861200D9CFE6FFE1CFD9FFFD0EDBCFDA
:10280000E9FFFE0EDBCFEAFF1C0EE926000EEA22EE
:10281000EF6AFD0EDBCFE9FFFE0EDBCFEAFF170EFE
:10282000E926000EEA22EF6AC6AE0ED0C69EFD0E65
:10283000DBCFE9FFFE0EDBCFEAFF170EE926000E25
:10284000EA22010EEF6E22D0F150800B10E0F25020
:10285000080B0DE0FD0EDBCFE9FFFE0EDBCFEAFF3C
:10286000170EE926000EEA22020EEF6E0FD0F0A638
:102870000DD0909EFD0EDBCFE9FFFE0EDBCFEAFF11
:10288000170EE926000EEA22030EEF6E250EC6147F
:10289000250819E0FD0EDBCFE9FFFE0EDBCFEAFFD6
:1028A0001C0EE926000EEA22010EEF6EFD0EDBCFB4
:1028B000E9FFFE0EDBCFEAFF170EE926000EEA2243
:1028C000C6CFEFFF80D1C55019E0FD0EDBCFE9FF89
:1028D000FE0EDBCFEAFF1C0EE926000EEA22020EF6
:1028E000EF6EFD0EDBCFE9FFFE0EDBCFEAFF170E2A
:1028F000E926000EEA22C5CFEFFF65D1D0BE19D080
:10290000FD0EDBCFE9FFFE0EDBCFEAFF1C0EE92652
:10291000000EEA22030EEF6EFD0EDBCFE9FFFE0E86
:10292000DBCFEAFF170EE926000EEA22D0CFEFFF39
:102930004AD19DB619D0FD0EDBCFE9FFFE0EDBCFED
:10294000EAFF1C0EE926000EEA22040EEF6EFD0ED1
:10295000DBCFE9FFFE0EDBCFEAFF170EE926000E04
:10296000EA229DCFEFFF2FD19C5019E0FD0EDBCF67
:10297000E9FFFE0EDBCFEAFF1C0EE926000EEA227D
:10298000050EEF6EFD0EDBCFE9FFFE0EDBCFEAFF9B
:10299000170EE926000EEA229CCFEFFF14D1080E95
:1029A0009F5C19E0FD0EDBCFE9FFFE0EDBCFEAFFF7
:1029B0001C0EE926000EEA22060EEF6EFD0EDBCF9E
:1029C000E9FFFE0EDBCFEAFF170EE926000EEA2232
:1029D0009FCFEFFFF8D0A25019E0FD0EDBCFE9FF4B
:1029E000FE0EDBCFEAFF1C0EE926000EEA22070EE0
:1029F000EF6EFD0EDBCFE9FFFE0EDBCFEAFF170E19
:102A0000E926000EEA22A2CFEFFFDDD0A55019E0A3
:102A1000FD0EDBCFE9FFFE0EDBCFEAFF1C0EE92641
:102A2000000EEA22080EEF6EFD0EDBCFE9FFFE0E70
:102A3000DBCFEAFF170EE926000EEA22A5CFEFFF53
:102A4000C2D0100EF214100819E0FD0EDBCFE9FF22
:102A5000FE0EDBCFEAFF1C0EE926000EEA22090E6D
:102A6000EF6EFD0EDBCFE9FFFE0EDBCFEAFF170EA8
:102A7000E926000EEA22F2CFEFFFA5D0470EF114AF
:102A800019E0FD0EDBCFE9FFFE0EDBCFEAFF1C0EE7
:102A9000E926000EEA220A0EEF6EFD0EDBCFE9FFFB
:102AA000FE0EDBCFEAFF170EE926000EEA22F1CF79
:102AB000EFFF89D0C00EF01419E0FD0EDBCFE9FF67
:102AC000FE0EDBCFEAFF1C0EE926000EEA220B0EFB
:102AD000EF6EFD0EDBCFE9FFFE0EDBCFEAFF170E38
:102AE000E926000EEA22F0CFEFFF6DD092A819D0B0
:102AF000FD0EDBCFE9FFFE0EDBCFEAFF1C0EE92661
:102B0000000EEA220C0EEF6EFD0EDBCFE9FFFE0E8B
:102B1000DBCFEAFF170EE926000EEA2292CFEFFF85
:102B200052D093B019D0FD0EDBCFE9FFFE0EDBCF04
:102B3000EAFF1C0EE926000EEA220D0EEF6EFD0ED6
:102B4000DBCFE9FFFE0EDBCFEAFF170EE926000E12
:102B5000EA2293CFEFFF37D03E0E94141C0819E001
:102B6000FD0EDBCFE9FFFE0EDBCFEAFF1C0EE926F0
:102B7000000EEA220E0EEF6EFD0EDBCFE9FFFE0E19
:102B8000DBCFEAFF170EE926000EEA2294CFEFFF13
:102B90001AD097BE18D0FD0EDBCFE9FFFE0EDBCFBB
:102BA000EAFF1C0EE926000EEA220F0EEF6EFD0E64
:102BB000DBCFE9FFFE0EDBCFEAFF170EE926000EA2
:102BC000EA2297CFEFFFE552E7CFD9FF1200D8CF27
:102BD000E4FFE0CFE4FFE46EDACFE4FFE2CFDAFF18
:102BE000E9CFE4FFEACFE4FFE6529EA624D09E960A
:102BF000C9CF8BF101018A5100081BE288C1E9FFAE
:102C000089C1EAFF882B000E89238BC1EFFF86C1A3
:102C1000E9FF87C1EAFF862B8723EFCF8BF18BC1BA
:102C2000C9FF8A078A5104E1020EAA6FCC93CC81B6
:102C300001D0C96A29D0F2A227D0F2920101200E58
:102C40008A6FCCA905D0600E886F010E896F04D001
:102C5000400E886F010E896FCCA1CC79CCA705D02E
:102C6000000E866F010E876F04D0200E866F010E56
:102C7000876FC9CF8BF186C1E9FF87C1EAFF862B39
:102C8000000E8723EF50C96EE552E5CFEAFFE5CF8E
:102C9000E9FFE5CFDAFFE550E5CFE0FFE5CFD8FF6C
:022CA000100022
:0E2CA2002B9E08D02B9E33AE05D0326C331E15
:102CB000E86A33222B8E33C02DF032C02CF03D6AEF
:102CC0003C6A8E0E2E6E2F6AD0EF18F0397E2B6A7A
:102CD0000CEC19F024EC19F02BB6B4EF18F02BA281
:102CE0000AD02BAA03D02BBEB4EF18F02BA4C0EF50
:102CF00018F0BDEF18F02BAA05D02BACC0EF18F0E0
:102D0000BDEF18F02BA00AD02BA808D02BBE04D002
:102D10002BA402D0C9EF18F0CDEF18F03C6A2F6A4F
:102D20003950345C3B6E10E331C03DF032C02CF0C2
:102D300033C02DF034C03AF036C031F037C032F035
:102D400038C033F02B3A09D036C03DF037C02CF0F4
:102D500038C02DF039C03AF03B6C2B9E2BBC2B8E2B
:102D60003AC02EF02BB0FCEF18F01A0E3B60FCEFCF
:102D700018F02E6A346A2BA408D0316C321E331E30
:102D8000341EE86A3222332234222BAC08D03D6C48
:102D90002C1E2D1E2E1EE86A2C222D222E22306A79
:102DA0003B5207E0343433323232313230323B2E50
:102DB000F9D731503D2632502C2233502D22345039
:102DC0002E2230C03CF02B9E2EAE0BD03C6C3D1E14
:102DD0002C1E2D1E2E1EE86A3D222C222D222E2274
:102DE0002B8E2EA006D0D8802D322C323D323C3294
:102DF0003A2A3AC02EF0D0EF18F02B6A0CEC19F0FA
:102E000024EC19F02BB6B4EF18F02BA205D02BBA96
:102E1000B4EF18F0BBEF18F02BBAC7EF18F02BA0E7
:102E200005D02BB8B4EF18F0C7EF18F02BB8BBEFF4
:102E300018F02F6A7F0E34242E6EE86A2F22395044
:102E40002E5EE86A2F5A1A0E3A6E346A3C6A3D6A60
:102E50002C6A2D6A3650315E3750325A3850335A08
:102E6000000E345A09E73650312637503222385096
:102E70003322000E342201D03C8AD89031363236CB
:102E800033363436D8903C363D362C362D363A2EF5
:102E9000E1D7335032103110D8A43C8AD0EF18F06B
:102EA0002B6A0CEC19F024EC19F02BB6B4EF18F0E7
:102EB0002BA205D02BB8B4EF18F0BBEF18F02BAA5B
:102EC00005D02BB0B4EF18F0BBEF18F02BB002D048
:102ED0002BA802D0C7EF18F02F6A395034242E6E79
:102EE000E86A2F227E0E2E5EE86A2F5A3C6A3D6AFF
:102EF0002C6A2D6A38503302F4CF2DF0F3CF2CF02A
:102F000037503302F3503D26F4502C22000E2D2270
:102F100038503202F3503D26F4502C22000E2D2260
:102F200036503302F3503C26F4503D22000E2C2242
:102F30002D2237503202F3503C26F4503D22000E31
:102F40002C222D2238503102F3503C26F4503D22E1
:102F5000000E2C222D2236503202F4503C26000E58
:102F60003D222C222D2237503102F4503C26000EF7
:102F70003D222C222D22D0EF18F02A6AE86A38AEC2
:102F8000CAEF17F0356C361E371E381E3622372230
:102F900038222A1E33AED5EF17F0306C311E321EA8
:102FA000331E3122322233222A1EE7EC23F033BEB5
:102FB000ECEF17F02AAE000C306C311E321E331EBF
:102FC000E86A3122322233222C6C2D1E2E1E2F1E37
:102FD0002D222E222F22000C2ABEDCEF17F02B8888
:102FE000FF0C33C03DF032C03CF032503702F4CF1A
:102FF00031F0F3CF30F033503802F4CF33F0F3CF69
:1030000032F03702F3503126F4503222E86A33228C
:103010003C503802F3503126F4503222E86A332211
:1030200038AE17EF18F03C50325E3D50335A3DAE8B
:10303000000C3750325E3850335A000C2B6A0CECBF
:1030400019F02BB628EF18F02BA20ED02BB405D018
:103050007F0E336EFF0E326E1FD0800E336E326ADB
:103060001BD0336A326A18D02BB0FBD78F0E346076
:10307000EDD77E0E3464F5D78E0E345C05E0D89023
:1030800033323232342AF8D72BA406D0326C331EB6
:10309000E86A332233AEE5D712005FEC18F02BB6A6
:1030A000000C2BB0000C2BB4000C010C5FEC18F0E2
:1030B0002BB6000C2BB0000C2BA4000C010C2B6ABF
:1030C0000CEC19F024EC19F02BB612002BAE08D042
:1030D0002BA004D02BA802D02B8012002B90120022
:1030E0003950345C0BE13850335C08E13750325CC6
:1030F00005E13650315C02E12B801200D8A002D0ED
:103100002B8E10D0345039C034F0396E335038C063
:1031100033F0386E325037C032F0376E315036C02F
:1031200031F0366E3950345C10E0FF0F09E02B901F
:103130002BB403D02BAE2B8412002BAE2B94120099
:10314000392AD8903832373236323650315E3750DD
:10315000325A3850335A33BEEAD7D89031363236E5
:103160003336342EF8D7C8D77F0E346EFF0E336E49
:10317000326E316E12007F0E2BBEFF0E346E02D007
:103180007F0E346E800E336E326A316AF3D72BAE07
:1031900004D0800E346E336AF7D7346A336AF4D7BA
:1031A0002D502C103D103C10F8E02FBEF0D72DBE56
:1031B0000CD02E502F10EBE0D8903C363D362C36FC
:1031C0002D362E06D8A02F06F2D72F50D4E12E2868
:1031D000D2E03CAE11D07F0E3C1402E13DA00CD0F9
:1031E0003D2AE86A2C222D2207E3D8802D322C328A
:1031F0003D322E2A2E28BFE02E50C9E03DC031F0CE
:103200002CC032F02D34336E2E30346E3332349E77
:103210002BBE348EBAEF18F03336343602E32B84EB
:103220002B7E06E12B80346A336A326A316A1200DF
:10323000342803E0D88033321200D890333202E1D0
:103240002B8212002B8612003836393602E32B8C83
:103250002B7E06E12B88396A386A376A366A120093
:10326000392803E0D88038321200D8903832EAE1A9
:043270002B8A120093
:0C3274000001646B656B666B676B786B28
:10328000A00E686F0F0E696F6A6B6B6B6C6B100E24
:103290006D6F6E6B6F6B900E706F010E716F726B56
:1032A000736BAA0E746F6A0E756F766B776B120074
:1032B00054D9040EE12662C004F063C005F0066A2A
:1032C000076A05AE02D00668076804C030F005C082
:1032D00031F006C032F007C033F068C035F069C085
:1032E00036F06AC037F06BC038F02BD96CC035F0BF
:1032F0006DC036F06EC037F06FC038F00ED9DFCF3A
:1033000000F0010EDBCF01F000C0F3FF01C0F4FFBD
:10331000040EE15C02E2E16AE552E16E23D11DD9BF
:10332000040EE12664C030F065C031F066C032F0B2
:1033300067C033F070C035F071C036F072C037F03E
:1033400073C038F0FED874C035F075C036F076C062
:1033500037F077C038F0E1D8DECF30F0DECF31F093
:10336000DECF32F0DDCF33F0DD52DD52040EE15C12
:1033700002E2E16AE552E16EF5D0000178510AE11E
:10338000796B7A6B7B6B7C6B0301346B010E336F53
:103390000001786F1200E1D8E652000178052FE1B4
:1033A000DF6A400EDF5C1AE2EA6ADF34FE0BEA36BF
:1033B000E96E7D0EE926000EEA22EECF00F0EFCF97
:1033C00001F00001005000017927000101500001C7
:1033D0007A23000E7B237C23DF2AE3D7060ED890C6
:1033E0007C337B337A337933E806F9E179C060F0D6
:1033F0007AC061F00301040E336F0001786BE5526F
:10340000B1D003013351120060C0F3FF61C0F4FF7B
:103410001200A3D8FD0EDBCF60F0FE0EDBCF61F013
:10342000A1D00001646B656B666B676B120095D869
:10343000020EE12627EC1DF0000968E00001780586
:1034400021E1060EE66EC2EC1CF0E552F3CF00F06F
:10345000F4CF01F003013451E96EEA6AD890E936FD
:10346000EA367D0EE926000EEA22F3CFEEFF01C018
:10347000EDFF342B3F0E345D02E1020E336F3F0E41
:1034800034173FD0060EE66EC2EC1CF0E552000188
:103490006051F35C006E6151F458016E00C0DEFFB4
:1034A000DD6EDECF00F0DDCF01F0D880015004E703
:1034B000F80E005CFF0E01580BE3DECF02F0DDCF0B
:1034C00003F003341CE202500808000E035417E214
:1034D000DECF62F0DDCF63F0DECF00F0DDCF01F0B4
:1034E000026A036A01AE02D00268036800506427D2
:1034F00001506523025066230350672302D0626B9C
:10350000636BFE0EDB5002E030EC1DF0020EE15C5E
:1035100002E2E16AE552E16E25D028D8D9CFE9FF71
:10352000DACFEAFFEECF30F0EECF31F0EECF32F06F
:10353000EFCF33F031D848EC23F025D82DD8B6EFB3
:103540001AF048EC23F02CC000F02DC001F02EC082
:1035500002F02FC003F0C3EF1AF0D9CFE6FFE1CF9E
:10356000D9FF1200E552E7CFD9FF1200BDEC17F0EA
:1035700030C0DEFF31C0DEFF32C0DEFF33C0DDFF12
:10358000DD52DD5212002CC030F02DC031F02EC0C3
:1035900032F02FC033F01200E80E356E030E366E97
:0635A000376A386A1200D0
:0A35A6007FD9FE0EDB50080A1EE07C
:1035B0000F0A1AE0010A16E0030A12E0010A0EE0FF
:1035C000070A08E0010A04E0030A12E1810E03D0B1
:1035D000400E01D02A0EAF6EAC940DD0810E09D0F2
:1035E000400E07D02A0E05D0150E03D00A0E01D0CA
:1035F000150EAF6EAC849D9A9D98AC98AC9E948E3F
:10360000AB9CAB96AB8AAB889F9A9D8A0201FD6901
:10361000FE69949CAC9CAC969F989D88AC8AAB8EBE
:1036200047D141D9FE0EDB50080A1CE00F0A18E012
:10363000010A14E0030A10E0010A0CE0070A08E09E
:10364000010A04E0030A12E1810E11D0400E0FD0EE
:103650002A0E0DD0810E07D0400E05D02A0E03D0C1
:10366000150E01D00A0E6F6E6C8403D0400E6F6E83
:103670006C94A39AA3986C986C9E98846B9C6B96A0
:103680006B8A6B88A59AA38A0201FD69FE699892EC
:103690006C9C6C96A598A3886C8A6B8E09D103D913
:1036A000E6529D9A05C3DFFF9D8ADF50E55200D1A7
:1036B000FAD8E652A39A11C3DFFFA38ADF50E5527E
:1036C000F7D0F1D8E6520301025102E0000E15D006
:1036D0000351EA6A000FE96E020EEA22EFCFDFFF24
:1036E0000507032B1F0E03179D9A0451035D02E18A
:1036F000010E026F9D8A016BDF50E552D9D0D3D8FD
:10370000E65203010E5102E0000E15D00F51EA6A95
:10371000400FE96E020EEA22EFCFDFFF11070F2BF9
:103720001F0E0F17A39A10510F5D02E1010E0E6FCD
:10373000A38A0D6BDF50E552BBD0B5D80301085109
:10374000FDE10B51EA6A200FE96E020EEA22FE0E3D
:10375000DBCFEFFF0C2B0B2B1F0E0B179D980B5184
:103760000A5D02E1010E086F9D88096BA1D09BD80C
:1037700003011451FDE11751EA6A600FE96E020E70
:10378000EA22FE0EDBCFEFFF182B172B1F0E1717A9
:10379000A3981751165D02E1010E146FA388156BF3
:1037A00087D00301015102E09D9A12000451EA6A98
:1037B000000FE96E020EEA22AECFEFFFABA203D0FC
:1037C000AB98AB88062BABB4072B052B042B1F0E35
:1037D00004170451035D02E1010E016F026B120038
:1037E00003010D5102E0A39A12001051EA6A400F42
:1037F000E96E020EEA226ECFEFFF6BA203D06B9848
:103800006B88122B6BB4132B112B102B1F0E101760
:1038100010510F5D02E1010E0D6F0E6B12000301DE
:10382000095102E09D9812000A51EA6A200FE96EE0
:10383000020EEA22EF50AD6E0C070A2B1F0E0A177C
:103840000B510A5D02E1010E096F086B12000301C2
:10385000155102E0A39812001651EA6A600FE96E52
:10386000020EEA22EF506D6E1807162B1F0E161768
:103870001751165D02E1010E156F146B120013D87B
:10388000030100510FE0000505E1FE0EDBCFE6FF6E
:1038900054DF07D0020E005D05E1FE0EDBCFE6FF30
:1038A00066DFE55205D0D9CFE6FFE1CFD9FF1200A0
:0838B000E552E7CFD9FF120039
:0838B80069D9E6520101CD6B54
:1038C000190ECE6F060ED16F020ED26F100ECF6F93
:1038D000D06BDF6AD151DF5C08E2DF505CD9EE6A61
:1038E000EE6AEE6AEE6ADF2AF5D7F76BF86BF96BD2
:1038F000010EC26EC16ABE0EC06E9D9CCD5102E12A
:10390000190ECE1928E0800ECD1902E10C0ECE1949
:103910001EE0400ECD1902E1060ECE1916E0200E73
:10392000CD1902E1030ECE190EE0900ECD1902E181
:10393000010ECE1906E0C80ECD1911E1CE510FE1EE
:103940000ED0520E09D0520E03D0510E05D0510E9A
:10395000766E450E07D0500E766E8C0E03D06A0E32
:10396000766EDD0E776E786AA596A496A386768429
:10397000E55208D1D9CFE6FFE652A3967694C26A03
:10398000E55200D103D9020EE126FE0EDBCF00F096
:103990000101D151D88000540CE3A396FE0EDB0444
:1039A000E96EEA6A02D9EECFDEFFEDCFDDFFA38636
:1039B00002D0DE6ADD6ADECF00F0DDCF01F000C0AC
:1039C000F3FF01C0F4FF020EE15C02E2E16AE5529E
:1039D000E16ED8D0DBD8FD0EDBCF00F0FE0EDBCFE2
:1039E00001F0026A036A880E356E130E366E376A6E
:1039F000386A00C030F001C031F002C032F003C0BC
:103A000033F048EC23F02CC000F02DC001F02EC0A4
:103A100002F02FC003F0356A100E366E376A386A2E
:103A20002CC030F02DC031F02EC032F02FC033F05A
:103A3000BDEC17F030C000F031C001F032C002F030
:103A400033C003F030C0F3FF31C0F4FF9BD09ED8E9
:103A5000E652A396FFC0DFFFA386DF50E55292D067
:103A6000A3960001FF6BA386120090D8050EE126F5
:103A7000C450DE6EDD6AD9CFE9FFDACFEAFFEE503F
:103A8000ED6EEF6AC350DE26000EDD22DECF3EF083
:103A9000DDCF3FF0406A416A0101F9517CD83E50C8
:103AA000EE263F50EE224050EE224150EE22F92BFE
:103AB000D151F95D04E3F96BF72B000EF823020EE8
:103AC000F9C1DBFFDB50040D020EF3CFDBFFDB801F
:103AD000DB50C26EC282CF51F75DD051F8593FE33F
:103AE000030EDB6A040EDB6A030EDBCF3EF0040E2E
:103AF000DBCF3FF00101D15100013FAE02D0D890A1
:103B000003D03E5C000E3F5825E230D80101D2516F
:103B10001F0BEECF3EF0EECF3FF0EECF40F0EECFFA
:103B200041F007E0D890413240323F323E32E80661
:103B3000F9E143D83AD83EC0EEFF3FC0EDFF16D8BA
:103B4000EE6AEE6AEE6AEE6A030EDB2A040ECCE33E
:103B5000DB2ACAD70001FF2B0101F76BF86B050EBA
:103B6000E15C02E2E16AE552E16E0CD026D8D89021
:103B7000E936EA36D890E936EA36D30EE926010E60
:103B8000EA221200E552E7CFD9FF1200D9CFE6FFB3
:103B9000E1CFD9FF1200040DF3CFE9FFF4CFEAFF24
:103BA000D30EE926010EEA221200D890E936EA3651
:103BB000EB0EE926010EEA221200030EDBCFE9FF2D
:083BC000040EDBCFEAFF120046
:083BC80087B602D0010E0BD0FC
:103BD00088B202D0020E07D088B402D0030E03D000
:103BE00088B604D0040EF36EF46A1200F368F46829
:103BF00012000201E06B26EC23F0E6DFF3CFF9F2CE
:103C0000F4CFFAF21200010EE66ED0EC08F0E552A5
:103C10000201010EF91904E1FA5102E155D817D059
:103C2000020EF91904E1FA5102E128D810D0030E6E
:103C3000F91904E1FA5102E12ED809D0040EF9195C
:103C400004E1FA5102E17CD802D038EC20F06EECAD
:103C500007F027C3E6FF28C3E6FF25C3E6FF26C318
:103C6000E6FF23C3E6FF24C3E6FF9FEC04F0006EEB
:103C7000060EE15E005014EF09F01200C3D8E40E06
:103C8000D880F3540C0EF45405E3C3D8030E276F09
:103C9000286B1200CBD0D1D803E2C2D8276B11D049
:103CA000CCD811E32AEC23F0F3CF02F0F4CF03F0E9
:103CB000540ED880F354240EF45405E3AAD8030E0E
:103CC000276F286B1200B2D087A203D0A9D8BA0EF2
:103CD00004D081AC05D09DD8FD0E276F28691ED079
:103CE00081AA05D09DD8460E276F286B17D0875024
:103CF000010B03E10201FB0513E184D8C40ED88057
:103D0000F354090EF45408E384D8FD0E276F286994
:103D10000201010EFB6F12000201FB6B20EF23F08A
:103D200071D87D0ED880F354000EF45408E20201DD
:103D3000FB5105E175D8276B286B20EC23F01200AE
:103D400003012A5112E17FD88C0EF35C0A0EF4585D
:103D500005E20301810E256F266907D020EC23F0D0
:103D60000201FC6B0301010E2A6F020E2A5D12E1B3
:103D70006AD8200EF35C030EF45805E20301810EAD
:103D8000256F266907D020EC23F00201010EFC6F9D
:103D900003012A6F2A051CE1256B266B236B246B1C
:103DA00031D82C0EF35C010EF45805E20301810EAC
:103DB000276F28690DD020EC23F00201FC5103E1AC
:103DC0000301020E2A6F0201FC0502E103012A6BC6
:103DD0008750010B026E8150200B01E0010E016E35
:103DE0008150400B01E0010E006E8750020B01E094
:103DF000010E00240124022404E0010E0201F96FE7
:103E0000FA6B12002AEC23F0F3CF00F0F4CF01F0AC
:103E100012000301236B246B810E256F26691200AB
:103E20000301236B246B256B266B120020EC23F01F
:103E3000010E0201F96FFA6B1200E4DF700EF35C01
:103E4000170EF4581200236B246B276B286B02EFBC
:023E50001FF061
:0E3E5200938493869388938A938C938E9980A1
:103E60009982998499869A829A849A8694909A984B
:103E70009A9A9A9C9A9E8A948A968A988A9A8A9CF6
:103E80008A9E90909092909490969192919491960F
:103E90008B909198919A919C918E0301010E006FE5
:103EA000070EE66ED3EC1AF0E552070EE66E11EC43
:103EB0001BF0E552180E006E440E6CD85CEC1CF042
:103EC000020E006E440E66D83AEC19F086EC22F031
:103ED000E90E006E430E5ED8CD0E006E430E5AD82A
:103EE0000DEC23F0B50E006E430E54D8900E006E0C
:103EF000430ECAEF1FF081CF2BF3E7EC12F0A9DFDE
:103F00005FD85AEC13F00101CC910101ADAF15D08F
:103F10000301010E2E6F2D6F0101CCA10BD0030107
:103F20002C0504E19AEC24F003012C6B40D89CECA6
:103F300024F02BD09DEC24F0E8D7ADAD15D00101D5
:103F4000CCA10FD003012D0508E138EC20F0F9ECED
:103F50001DF003012D6B010E2E6F29D803EC1EF00E
:103F600014D03DEC1EF0D1D70101CCA110D003013B
:103F70002E0508E138EC20F04CEC04F003012E6B28
:103F8000010E2D6F14D850EC04F01AD8BED766EC91
:103F900004F0BBD7016E026A00C0E6FFE66E02C005
:103FA000E6FF3AEC22F0E552E552E5521200AC0E83
:103FB000E66E010EE66E5FEC13F0E552E55212007C
:103FC0008C0EE66E010EE66E98EC13F0E552E552AB
:023FD0001200DD
:0E3FD2001E0EF66E080EF76E000EF86E03015E
:103FE0000900F5501E6F0900F5501F6F03E11E67B1
:103FF00001D03DD00900F550196F0900F5501A6F36
:104000000900F5501B6F09000900F550E96E090021
:10401000F550EA6E090009000900F5501C6F09000F
:10402000F5501D6F09000900F6CF20F3F7CF21F3FB
:10403000F8CF22F319C3F6FF1AC3F7FF1BC3F8FF2B
:1040400003011C5302E11D5307E00900F550EE6E19
:104050001C07F8E21D07F9D720C3F6FF21C3F7FFBD
:1040600022C3F8FF03011E07000E1F5BBFD712001B
:1040700001017F0E906F916F926F936F946F956FA8
:10408000966F976F986F996F9A6F9B6F9C6F9D6FEC
:104090009E6F9F6F8D908C908D928C928D948C944E
:1040A0008D968C968D988C988D9A8C9A8D9C8C9CE4
:1040B00091908C9E1200D9CFE6FFE1CFD9FF020E7E
:1040C000E1260F0EE66EFE0EDB507F0BFE0BFD0BA6
:1040D000E66EF10EE66E80EC23F0E552E552E55215
:1040E0000A0EE66E8FEC24F0E552AFEC24F007ECFC
:1040F00004F00009FCE10BEC24F0ACEC24F0C4501B
:10410000026E036E026AC35000010210006E03C00B
:1041100001F0DE6E03C0DDFFDECF00F0DDCF01F089
:1041200000C0F3FF01C0F4FF020EE15C02E2E16AAD
:0C413000E552E16EE552E7CFD9FF120026
:04413C009DD8A69EC6
:10414000FD0EDB50A96EFE0EDBCF01F001C000F0CA
:104150000150AA6EA680A85094D08ED8E6520101D4
:10416000FB511EE1FE51EA6A800FE96E020EEA225F
:10417000FC0EDBCFEFFFFE5175D8FD0EDBCFEEFF5F
:10418000FE0EDBCFEDFFFA2BFE2B1F0EFE17FE51AE
:10419000FD5D02E1010EFB6FFC6B010EDF6E01D0D5
:1041A000DF6ADF50E5526DD067D8030EE1260101CA
:1041B000FC514CE1F250800B01E0010EE76E010E64
:1041C000E7CFDBFFF250400B01E0010EE76E020E7D
:1041D000E7CFDBFFA69EA698A198FD5143D8EF50EC
:1041E000A96EFD513FD8EECF00F0EFCF01F001C036
:1041F00000F0016A0050AA6EFD51EA6A800FE96E74
:10420000020EEA22EF50A86EA684F29EF29C550E92
:10421000A76EAA0EA76EA682010EDB50E8B0F28E42
:10422000E8A0F29E020EDB50E8B0F28CE8A0F29C0F
:10423000FA07FD2B1F0EFD17FE51FD5D02E1010E79
:10424000FC6FFB6BA1A8FED7A198A694030EE15CBE
:1042500002E2E16AE552E16E14D0200E0101D8803D
:10426000FA551200E96EEA6AD890E936EA36A00EED
:10427000E926020EEA221200D9CFE6FFE1CFD9FFEC
:0A4280001200E552E7CFD9FF12004B
:06428A00D8CFE4FFE0CFF5
:10429000E4FFE46EDACFE4FFE2CFDAFFE9CFE4FF38
:1042A000EACFE4FFF3CFE4FFF4CFE4FF00EE2AF01F
:1042B000140EE80403E3EECFE4FFFBD7E652D9CFB8
:1042C000E6FFE1CFD9FF020EE1269E50200B06E06B
:1042D0009D50200B03E0D1EC1BF038D0A450200BF4
:1042E00006E0A350200B03E0F0EC1BF02FD0F050C1
:1042F000020B07E0F050100B04E0F092BBEC22F050
:1043000025D09E50020B07E09D50020B04E09E92C8
:104310001BEC23F01BD0A450080B07E0A350080BA4
:1043200004E0A49635EC1DF011D09E50100B06E071
:104330009D50100B03E00FEC1CF008D0A450100BA4
:1043400005E0A350100B02E027EC1CF0020EE15C2C
:1043500002E2E16AE552E16EE552E7CFD9FFE552AC
:1043600000EE3DF0140EE80403E3E5CFEDFFFBD7CC
:10437000E5CFF4FFE5CFF3FFE5CFEAFFE5CFE9FFB7
:10438000E5CFDAFFE550E5CFE0FFE5CFD8FF10003D
:1043900049464920557365722050726F6365737387
:1043A0006F7220496E697469616C697A6564202E48
:1043B0002E2E0D0A00496E697469616C697A656414
:1043C0002054696D657273203E3E0D0A00496E6986
:1043D0007469616C697A656420496E74657272757E
:1043E000707473203E3E0D0A00496E697469616CF9
:1043F000697A656420456E636F646572203E3E0D88
:104400000A00496E697469616C697A696E67204156
:104410004443203E3E0D0A00496E697469616C692F
:104420007A65642053657269616C20506F72747391
:10443000203E3E0D0A0064726976655F783A202559
:10444000642064726976655F793A256420647269D4
:1044500076655F7A3A25642070315F783A2564206A
:1044600070315F793A2025642070325F783A2025D8
:04447000640D0A00CD
:0C447400D9CFE6FFDACFE6FFE1CFD9FF99
:10448000E2CFDAFFE652E652E652E652D950FB0F8F
:10449000006EFF0EDA20016E00C0DEFFDD6EDECFA3
:1044A000E6FFDDCFE6FFFB0EDBCFE6FFFC0EDBCF4A
:1044B000E6FFFD0EDBCFE6FFFDC2E6FFFEC2E6FF34
:1044C000ECEC0CF0006E070EE15C02E2E16AE552F2
:1044D000E16E0050020EF3CFDBFF030EF4CFDBFFE3
:1044E000020EDBCF00F0030EDBCF01F000C0F3FFC4
:1044F00001C0F4FF040EE15C02E2E16AE552E16E04
:0C450000E552E5CFDAFFE7CFD9FF12004B
:04450C009384F09E06
:10451000F188F092F0881200D9CFE6FFE1CFD9FF01
:10452000040EE126F0982FC3DFFF010E30C3DBFF3E
:10453000020E31C3DBFF030E32C3DBFFF088DECF98
:1045400030F0DECF31F0DECF32F0DDCF33F0DD52B0
:10455000DD52040EE15C02E2E16AE552E16EE552F1
:10456000E7CFD9FF1200F09803012F6B306B316B4E
:10457000326BF088120081BE07D003012F07000EB6
:10458000305B315B325B120003012F2B000E3023B6
:064590003123322312006A
:0A459600D9CFE6FFDACFE6FFE1CF50
:1045A000D9FFE2CFDAFFFB0EDBCF00F0FC0EDBCF52
:1045B00001F00001800E01141AE1FB0EDBCFE9FFD0
:1045C000FC0EDBCFEAFFEECFF3FFEDCFF4FFEE2AD8
:1045D000000EEF22F3CFE9FFF4CFEAFFFD0EDBCFB1
:1045E000EFFFEF50016AF36E01C0F4FF10D0FB0E35
:1045F000DB50FE0806E1FD0EDBCFE6FF81EC24F088
:1046000005D0FD0EDBCFE6FF3FEC1CF0E552E55296
:0A461000E5CFDAFFE7CFD9FF120073
:06461A00CC6AF90ECB6E24
:10462000CA86CA98CA9ACA8CCA80CA929F929E9217
:104630009D82CA9412000001FD2B000EFE23120081
:1046400007D80001FD6BFE6B26EF23F0CA84120031
:10465000CA941200D9CFE6FFE1CFD9FF020EE126BE
:10466000F7DFFDC0DEFFFEC0DDFFF0DFDECF00F0D4
:10467000DDCF01F000C0F3FF01C0F4FF020EE15CEA
:1046800002E2E16AE552E16EE552E7CFD9FF12009E
:1046900030503502F3CF2CF0F4CF2DF03602F3502A
:1046A0002D26000EF4202E6E30503702F3502E26A9
:1046B000000EF4202F6E30503802F3502F26315068
:1046C0003502F3502D26F4502E22000E2F223150A9
:1046D0003602F3502E26F4502F2231503702F35079
:1046E0002F2632503502F3502E26F4502F2232500E
:1046F0003602F3502F2633503502F3502F26120086
:10470000D9CFE6FFDACFE6FFE1CFD9FFE2CFDAFF7C
:10471000C26AC16AC06AFC0EDB407F0B3C0BC26EF2
:10472000FB0EDB50C16EFC0EDB38F00B300BC11200
:10473000FD0EDB50800BC06EFD0EDB380F0B070B40
:10474000C012FD0EDB50040DF350380BC012FC0EEE
:10475000DBAE03D09E9C9D8CF28CC280E552E5CFEF
:08476000DAFFE7CFD9FF1200D8
:08476800FE0EE3CFE9FFFF0E96
:10477000E3CFEAFFF36AF46AEE5203E0F34AF42A65
:10478000FBD71200FF0EE3CFF8FFE552FF0EE3CF99
:10479000F7FFE552FF0EE3CFF6FFE552E66AE66A61
:1047A000E66A0900F55209E0FD0EE32A05E1FE0E76
:1047B000E32A02E1FF0EE32AF4D7FD0EE3CF31F046
:0E47C000FE0EE3CF32F0FF0EE3CF33F0120017
:0247CE002F6A50
:1047D0002E6A2D6A2C6A200EE76ED890303631365C
:1047E000323633362C362D362E362F3635502C5C5D
:1047F00036502D5837502E5838502F5809E3355021
:104800002C5E36502D5A37502E5A38502F5A302A97
:06481000E72EE4D71200C0
:0A481600D9CFE6FFDACFE6FFE1CFCD
:10482000D9FFE2CFDAFFE652E652C350DF6E010E47
:10483000C4CFDBFFDECF00F0DDCF01F000C0F3FF1F
:1048400001C0F4FFE552E552E552E5CFDAFFE7CFCC
:04485000D9FF12007A
:0C485400436F7079726967687420A932A4
:1048600030303720522E204B6576696E20576174A8
:10487000736F6E2E20416C6C2072696768747320B0
:0E4880006172652072657365727665642E0044
:02488E002F6A8F
:104890002E6A100EE76ED890323633362E362F360B
:1048A00037502E5C38502F5805E337502E5E385065
:0A48B0002F5A322AE72EF0D712002B
:0648BA001EEE00F02EEEE0
:1048C00000F0F86A2B9C00EE00F00F0EEE6AEA6230
:0E48D000FDD7E9EC1FF07BEC1FF0FDD71200C6
:0248DE00F36A7B
:1048E000F46AFF0EE124E96EFF0EE220EA6EED6647
:1048F00007D02F0EEF6404D03A0EEF6001D0F32AF8
:024900001200A3
:0E490200FF0EE350ACBA04D0AF6AAB8EAC8AA5
:0E491000949CACA2FED7AD6EF36EF46A12005A
:02491E00FF0E8A
:10492000E350E84E1200000000D000D000D0E82E86
:04493000FAD71200A0
:0C493400BDEF19F01200010EE66E17EC4A
:064940001AF0E55212001E
:0A494600303132333435363738395A
:07495000616263646566000B
:01495700005F
:06495800C2909D9C1200BC
:02495E00C28213
:02496000120043
:0E496200000000000000000000000000000047
:0B49700000000000010000000001003A
:02497B00FEFF3D
:03497D0000000136
:104980000000000000000100000000010000000025
:0649900000000100000020
:04499600FF0101011B
:02499A0000001B
:04499C000000000017
:0549A000000001000011
:0849A50000000000000000000A
:020000040030CA
:0100010006F8
:010002001EDF
:010003001EDE
:01000400F308
:010005008377
:010006008178
:01000800FFF8
:010009008076
:01000A00FFF6
:01000B008074
:01000C00FFF4
:01000D0000F2
:00000001FF
